{
  "contractName": "NFTTree",
  "abi": [
    {
      "inputs": [],
      "stateMutability": "nonpayable",
      "type": "constructor"
    },
    {
      "inputs": [
        {
          "internalType": "address",
          "name": "sender",
          "type": "address"
        },
        {
          "internalType": "uint256",
          "name": "tokenId",
          "type": "uint256"
        },
        {
          "internalType": "address",
          "name": "owner",
          "type": "address"
        }
      ],
      "name": "ERC721IncorrectOwner",
      "type": "error"
    },
    {
      "inputs": [
        {
          "internalType": "address",
          "name": "operator",
          "type": "address"
        },
        {
          "internalType": "uint256",
          "name": "tokenId",
          "type": "uint256"
        }
      ],
      "name": "ERC721InsufficientApproval",
      "type": "error"
    },
    {
      "inputs": [
        {
          "internalType": "address",
          "name": "approver",
          "type": "address"
        }
      ],
      "name": "ERC721InvalidApprover",
      "type": "error"
    },
    {
      "inputs": [
        {
          "internalType": "address",
          "name": "operator",
          "type": "address"
        }
      ],
      "name": "ERC721InvalidOperator",
      "type": "error"
    },
    {
      "inputs": [
        {
          "internalType": "address",
          "name": "owner",
          "type": "address"
        }
      ],
      "name": "ERC721InvalidOwner",
      "type": "error"
    },
    {
      "inputs": [
        {
          "internalType": "address",
          "name": "receiver",
          "type": "address"
        }
      ],
      "name": "ERC721InvalidReceiver",
      "type": "error"
    },
    {
      "inputs": [
        {
          "internalType": "address",
          "name": "sender",
          "type": "address"
        }
      ],
      "name": "ERC721InvalidSender",
      "type": "error"
    },
    {
      "inputs": [
        {
          "internalType": "uint256",
          "name": "tokenId",
          "type": "uint256"
        }
      ],
      "name": "ERC721NonexistentToken",
      "type": "error"
    },
    {
      "inputs": [
        {
          "internalType": "address",
          "name": "owner",
          "type": "address"
        }
      ],
      "name": "OwnableInvalidOwner",
      "type": "error"
    },
    {
      "inputs": [
        {
          "internalType": "address",
          "name": "account",
          "type": "address"
        }
      ],
      "name": "OwnableUnauthorizedAccount",
      "type": "error"
    },
    {
      "anonymous": false,
      "inputs": [
        {
          "indexed": true,
          "internalType": "address",
          "name": "owner",
          "type": "address"
        },
        {
          "indexed": true,
          "internalType": "address",
          "name": "approved",
          "type": "address"
        },
        {
          "indexed": true,
          "internalType": "uint256",
          "name": "tokenId",
          "type": "uint256"
        }
      ],
      "name": "Approval",
      "type": "event"
    },
    {
      "anonymous": false,
      "inputs": [
        {
          "indexed": true,
          "internalType": "address",
          "name": "owner",
          "type": "address"
        },
        {
          "indexed": true,
          "internalType": "address",
          "name": "operator",
          "type": "address"
        },
        {
          "indexed": false,
          "internalType": "bool",
          "name": "approved",
          "type": "bool"
        }
      ],
      "name": "ApprovalForAll",
      "type": "event"
    },
    {
      "anonymous": false,
      "inputs": [
        {
          "indexed": true,
          "internalType": "address",
          "name": "previousOwner",
          "type": "address"
        },
        {
          "indexed": true,
          "internalType": "address",
          "name": "newOwner",
          "type": "address"
        }
      ],
      "name": "OwnershipTransferred",
      "type": "event"
    },
    {
      "anonymous": false,
      "inputs": [
        {
          "indexed": true,
          "internalType": "address",
          "name": "from",
          "type": "address"
        },
        {
          "indexed": true,
          "internalType": "address",
          "name": "to",
          "type": "address"
        },
        {
          "indexed": true,
          "internalType": "uint256",
          "name": "tokenId",
          "type": "uint256"
        }
      ],
      "name": "Transfer",
      "type": "event"
    },
    {
      "inputs": [
        {
          "internalType": "address",
          "name": "to",
          "type": "address"
        },
        {
          "internalType": "uint256",
          "name": "tokenId",
          "type": "uint256"
        }
      ],
      "name": "approve",
      "outputs": [],
      "stateMutability": "nonpayable",
      "type": "function"
    },
    {
      "inputs": [
        {
          "internalType": "address",
          "name": "owner",
          "type": "address"
        }
      ],
      "name": "balanceOf",
      "outputs": [
        {
          "internalType": "uint256",
          "name": "",
          "type": "uint256"
        }
      ],
      "stateMutability": "view",
      "type": "function"
    },
    {
      "inputs": [
        {
          "internalType": "uint256",
          "name": "tokenId",
          "type": "uint256"
        }
      ],
      "name": "getApproved",
      "outputs": [
        {
          "internalType": "address",
          "name": "",
          "type": "address"
        }
      ],
      "stateMutability": "view",
      "type": "function"
    },
    {
      "inputs": [
        {
          "internalType": "address",
          "name": "owner",
          "type": "address"
        },
        {
          "internalType": "address",
          "name": "operator",
          "type": "address"
        }
      ],
      "name": "isApprovedForAll",
      "outputs": [
        {
          "internalType": "bool",
          "name": "",
          "type": "bool"
        }
      ],
      "stateMutability": "view",
      "type": "function"
    },
    {
      "inputs": [],
      "name": "name",
      "outputs": [
        {
          "internalType": "string",
          "name": "",
          "type": "string"
        }
      ],
      "stateMutability": "view",
      "type": "function"
    },
    {
      "inputs": [],
      "name": "owner",
      "outputs": [
        {
          "internalType": "address",
          "name": "",
          "type": "address"
        }
      ],
      "stateMutability": "view",
      "type": "function"
    },
    {
      "inputs": [
        {
          "internalType": "uint256",
          "name": "tokenId",
          "type": "uint256"
        }
      ],
      "name": "ownerOf",
      "outputs": [
        {
          "internalType": "address",
          "name": "",
          "type": "address"
        }
      ],
      "stateMutability": "view",
      "type": "function"
    },
    {
      "inputs": [],
      "name": "renounceOwnership",
      "outputs": [],
      "stateMutability": "nonpayable",
      "type": "function"
    },
    {
      "inputs": [
        {
          "internalType": "address",
          "name": "from",
          "type": "address"
        },
        {
          "internalType": "address",
          "name": "to",
          "type": "address"
        },
        {
          "internalType": "uint256",
          "name": "tokenId",
          "type": "uint256"
        }
      ],
      "name": "safeTransferFrom",
      "outputs": [],
      "stateMutability": "nonpayable",
      "type": "function"
    },
    {
      "inputs": [
        {
          "internalType": "address",
          "name": "from",
          "type": "address"
        },
        {
          "internalType": "address",
          "name": "to",
          "type": "address"
        },
        {
          "internalType": "uint256",
          "name": "tokenId",
          "type": "uint256"
        },
        {
          "internalType": "bytes",
          "name": "data",
          "type": "bytes"
        }
      ],
      "name": "safeTransferFrom",
      "outputs": [],
      "stateMutability": "nonpayable",
      "type": "function"
    },
    {
      "inputs": [
        {
          "internalType": "address",
          "name": "operator",
          "type": "address"
        },
        {
          "internalType": "bool",
          "name": "approved",
          "type": "bool"
        }
      ],
      "name": "setApprovalForAll",
      "outputs": [],
      "stateMutability": "nonpayable",
      "type": "function"
    },
    {
      "inputs": [
        {
          "internalType": "bytes4",
          "name": "interfaceId",
          "type": "bytes4"
        }
      ],
      "name": "supportsInterface",
      "outputs": [
        {
          "internalType": "bool",
          "name": "",
          "type": "bool"
        }
      ],
      "stateMutability": "view",
      "type": "function"
    },
    {
      "inputs": [],
      "name": "symbol",
      "outputs": [
        {
          "internalType": "string",
          "name": "",
          "type": "string"
        }
      ],
      "stateMutability": "view",
      "type": "function"
    },
    {
      "inputs": [
        {
          "internalType": "uint256",
          "name": "tokenId",
          "type": "uint256"
        }
      ],
      "name": "tokenURI",
      "outputs": [
        {
          "internalType": "string",
          "name": "",
          "type": "string"
        }
      ],
      "stateMutability": "view",
      "type": "function"
    },
    {
      "inputs": [
        {
          "internalType": "address",
          "name": "from",
          "type": "address"
        },
        {
          "internalType": "address",
          "name": "to",
          "type": "address"
        },
        {
          "internalType": "uint256",
          "name": "tokenId",
          "type": "uint256"
        }
      ],
      "name": "transferFrom",
      "outputs": [],
      "stateMutability": "nonpayable",
      "type": "function"
    },
    {
      "inputs": [
        {
          "internalType": "address",
          "name": "newOwner",
          "type": "address"
        }
      ],
      "name": "transferOwnership",
      "outputs": [],
      "stateMutability": "nonpayable",
      "type": "function"
    },
    {
      "inputs": [],
      "name": "mintTree",
      "outputs": [
        {
          "internalType": "uint256",
          "name": "",
          "type": "uint256"
        }
      ],
      "stateMutability": "nonpayable",
      "type": "function"
    },
    {
      "inputs": [
        {
          "internalType": "uint256",
          "name": "tokenId",
          "type": "uint256"
        }
      ],
      "name": "getTreeState",
      "outputs": [
        {
          "internalType": "enum NFTTree.TreeState",
          "name": "",
          "type": "uint8"
        }
      ],
      "stateMutability": "view",
      "type": "function"
    },
    {
      "inputs": [
        {
          "internalType": "uint256",
          "name": "tokenId",
          "type": "uint256"
        }
      ],
      "name": "waterTree",
      "outputs": [],
      "stateMutability": "nonpayable",
      "type": "function"
    }
  ],
  "bytecode": "0x608060405234801562000010575f80fd5b5033604051806040016040528060068152602001654e465472656560d01b815250604051806040016040528060048152602001635452454560e01b815250815f90816200005e9190620001a1565b5060016200006d8282620001a1565b5050506001600160a01b0381166200009e57604051631e4fbdf760e01b81525f600482015260240160405180910390fd5b620000a981620000b0565b5062000269565b600680546001600160a01b038381166001600160a01b0319831681179093556040519116919082907f8be0079c531659141344cd1fd0a4f28419497f9722a3daafe3b4186f6b6457e0905f90a35050565b634e487b7160e01b5f52604160045260245ffd5b600181811c908216806200012a57607f821691505b6020821081036200014957634e487b7160e01b5f52602260045260245ffd5b50919050565b601f8211156200019c575f81815260208120601f850160051c81016020861015620001775750805b601f850160051c820191505b81811015620001985782815560010162000183565b5050505b505050565b81516001600160401b03811115620001bd57620001bd62000101565b620001d581620001ce845462000115565b846200014f565b602080601f8311600181146200020b575f8415620001f35750858301515b5f19600386901b1c1916600185901b17855562000198565b5f85815260208120601f198616915b828110156200023b578886015182559484019460019091019084016200021a565b50858210156200025957878501515f19600388901b60f8161c191681555b5050505050600190811b01905550565b61147e80620002775f395ff3fe608060405234801561000f575f80fd5b506004361061011c575f3560e01c8063715018a6116100a9578063b88d4fde1161006e578063b88d4fde14610246578063c87b56dd14610259578063e985e9c51461026c578063f12918151461027f578063f2fde38b1461029f575f80fd5b8063715018a6146101ff5780638da5cb5b1461020757806395d89b4114610218578063998b723b14610220578063a22cb46514610233575f80fd5b806323b872dd116100ef57806323b872dd1461019d57806342842e0e146101b057806361c05ab6146101c35780636352211e146101d957806370a08231146101ec575f80fd5b806301ffc9a71461012057806306fdde0314610148578063081812fc1461015d578063095ea7b314610188575b5f80fd5b61013361012e36600461107a565b6102b2565b60405190151581526020015b60405180910390f35b610150610303565b60405161013f91906110e2565b61017061016b3660046110f4565b610392565b6040516001600160a01b03909116815260200161013f565b61019b610196366004611126565b6103b9565b005b61019b6101ab36600461114e565b6103c8565b61019b6101be36600461114e565b610456565b6101cb610475565b60405190815260200161013f565b6101706101e73660046110f4565b6104c1565b6101cb6101fa366004611187565b6104cb565b61019b610510565b6006546001600160a01b0316610170565b610150610523565b61019b61022e3660046110f4565b610532565b61019b6102413660046111a0565b610632565b61019b6102543660046111ed565b61063d565b6101506102673660046110f4565b610655565b61013361027a3660046112c2565b6106c6565b61029261028d3660046110f4565b6106f3565b60405161013f9190611307565b61019b6102ad366004611187565b6106fd565b5f6001600160e01b031982166380ac58cd60e01b14806102e257506001600160e01b03198216635b5e139f60e01b145b806102fd57506301ffc9a760e01b6001600160e01b03198316145b92915050565b60605f80546103119061132d565b80601f016020809104026020016040519081016040528092919081815260200182805461033d9061132d565b80156103885780601f1061035f57610100808354040283529160200191610388565b820191905f5260205f20905b81548152906001019060200180831161036b57829003601f168201915b5050505050905090565b5f61039c8261073a565b505f828152600460205260409020546001600160a01b03166102fd565b6103c4828233610772565b5050565b6001600160a01b0382166103f657604051633250574960e11b81525f60048201526024015b60405180910390fd5b5f61040283833361077f565b9050836001600160a01b0316816001600160a01b031614610450576040516364283d7b60e01b81526001600160a01b03808616600483015260248201849052821660448201526064016103ed565b50505050565b61047083838360405180602001604052805f81525061063d565b505050565b600980545f918261048583611379565b90915550506009546104973382610871565b5f818152600760209081526040808320805460ff1916600117905560089091529020429055919050565b5f6102fd8261073a565b5f6001600160a01b0382166104f5576040516322718ad960e21b81525f60048201526024016103ed565b506001600160a01b03165f9081526003602052604090205490565b61051861088a565b6105215f6108b7565b565b6060600180546103119061132d565b3361053c826104c1565b6001600160a01b0316146105925760405162461bcd60e51b815260206004820152601760248201527f596f7520646f6e2774206f776e2074686973207472656500000000000000000060448201526064016103ed565b61059b81610908565b60025f8281526007602052604090205460ff1660028111156105bf576105bf6112f3565b036105e1575f818152600760205260409020805460ff19166001179055610620565b60015f8281526007602052604090205460ff166002811115610605576106056112f3565b03610620575f818152600760205260409020805460ff191690555b5f908152600860205260409020429055565b6103c4338383610a2a565b6106488484846103c8565b6104503385858585610ac8565b60606106608261073a565b505f61067660408051602081019091525f815290565b90505f8151116106945760405180602001604052805f8152506106bf565b8061069e84610bf0565b6040516020016106af929190611391565b6040516020818303038152906040525b9392505050565b6001600160a01b039182165f90815260056020908152604080832093909416825291909152205460ff1690565b5f6102fd82610c80565b61070561088a565b6001600160a01b03811661072e57604051631e4fbdf760e01b81525f60048201526024016103ed565b610737816108b7565b50565b5f818152600260205260408120546001600160a01b0316806102fd57604051637e27328960e01b8152600481018490526024016103ed565b6104708383836001610d4a565b5f828152600260205260408120546001600160a01b03908116908316156107ab576107ab818486610e4e565b6001600160a01b038116156107e5576107c65f855f80610d4a565b6001600160a01b0381165f90815260036020526040902080545f190190555b6001600160a01b03851615610813576001600160a01b0385165f908152600360205260409020805460010190555b5f8481526002602052604080822080546001600160a01b0319166001600160a01b0389811691821790925591518793918516917fddf252ad1be2c89b69c2b068fc378daa952ba7f163c4a11628f55a4df523b3ef91a4949350505050565b6103c4828260405180602001604052805f815250610eb2565b6006546001600160a01b031633146105215760405163118cdaa760e01b81523360048201526024016103ed565b600680546001600160a01b038381166001600160a01b0319831681179093556040519116919082907f8be0079c531659141344cd1fd0a4f28419497f9722a3daafe3b4186f6b6457e0905f90a35050565b5f8181526008602052604081205461092090426113bf565b90506201518081106103c4575f61093a62015180836113d2565b90505f5b81811015610a15575f8481526007602052604081205460ff166002811115610968576109686112f3565b03610991575f84815260076020526040902080546001919060ff191682805b0217905550610a03565b60015f8581526007602052604090205460ff1660028111156109b5576109b56112f3565b036109d9575f84815260076020526040902080546002919060ff1916600183610987565b60025f8581526007602052604090205460ff1660028111156109fd576109fd6112f3565b14610a15575b80610a0d81611379565b91505061093e565b5050505f908152600860205260409020429055565b6001600160a01b038216610a5c57604051630b61174360e31b81526001600160a01b03831660048201526024016103ed565b6001600160a01b038381165f81815260056020908152604080832094871680845294825291829020805460ff191686151590811790915591519182527f17307eab39ab6107e8899845ad3d59bd9653f200f220920489ca2b5937696c31910160405180910390a3505050565b6001600160a01b0383163b15610be957604051630a85bd0160e11b81526001600160a01b0384169063150b7a0290610b0a9088908890879087906004016113f1565b6020604051808303815f875af1925050508015610b44575060408051601f3d908101601f19168201909252610b419181019061142d565b60015b610bab573d808015610b71576040519150601f19603f3d011682016040523d82523d5f602084013e610b76565b606091505b5080515f03610ba357604051633250574960e11b81526001600160a01b03851660048201526024016103ed565b805181602001fd5b6001600160e01b03198116630a85bd0160e11b14610be757604051633250574960e11b81526001600160a01b03851660048201526024016103ed565b505b5050505050565b60605f610bfc83610ec9565b60010190505f8167ffffffffffffffff811115610c1b57610c1b6111d9565b6040519080825280601f01601f191660200182016040528015610c45576020820181803683370190505b5090508181016020015b5f19016f181899199a1a9b1b9c1cb0b131b232b360811b600a86061a8153600a8504945084610c4f57509392505050565b5f818152600860205260408120548190610c9a90426113bf565b5f8481526007602052604090205490915060ff166201518082106106bf575f610cc662015180846113d2565b90505f5b81811015610d41575f836002811115610ce557610ce56112f3565b03610cf35760019250610d2f565b6001836002811115610d0757610d076112f3565b03610d155760029250610d2f565b6002836002811115610d2957610d296112f3565b14610d41575b80610d3981611379565b915050610cca565b50509392505050565b8080610d5e57506001600160a01b03821615155b15610e1f575f610d6d8461073a565b90506001600160a01b03831615801590610d995750826001600160a01b0316816001600160a01b031614155b8015610dac5750610daa81846106c6565b155b15610dd55760405163a9fbf51f60e01b81526001600160a01b03841660048201526024016103ed565b8115610e1d5783856001600160a01b0316826001600160a01b03167f8c5be1e5ebec7d5bd14f71427d1e84f3dd0314c0f7b2291e5b200ac8c7c3b92560405160405180910390a45b505b50505f90815260046020526040902080546001600160a01b0319166001600160a01b0392909216919091179055565b610e59838383610fa0565b610470576001600160a01b038316610e8757604051637e27328960e01b8152600481018290526024016103ed565b60405163177e802f60e01b81526001600160a01b0383166004820152602481018290526044016103ed565b610ebc8383611004565b610470335f858585610ac8565b5f8072184f03e93ff9f4daa797ed6e38ed64bf6a1f0160401b8310610f075772184f03e93ff9f4daa797ed6e38ed64bf6a1f0160401b830492506040015b6d04ee2d6d415b85acef81000000008310610f33576d04ee2d6d415b85acef8100000000830492506020015b662386f26fc100008310610f5157662386f26fc10000830492506010015b6305f5e1008310610f69576305f5e100830492506008015b6127108310610f7d57612710830492506004015b60648310610f8f576064830492506002015b600a83106102fd5760010192915050565b5f6001600160a01b03831615801590610ffc5750826001600160a01b0316846001600160a01b03161480610fd95750610fd984846106c6565b80610ffc57505f828152600460205260409020546001600160a01b038481169116145b949350505050565b6001600160a01b03821661102d57604051633250574960e11b81525f60048201526024016103ed565b5f61103983835f61077f565b90506001600160a01b03811615610470576040516339e3563760e11b81525f60048201526024016103ed565b6001600160e01b031981168114610737575f80fd5b5f6020828403121561108a575f80fd5b81356106bf81611065565b5f5b838110156110af578181015183820152602001611097565b50505f910152565b5f81518084526110ce816020860160208601611095565b601f01601f19169290920160200192915050565b602081525f6106bf60208301846110b7565b5f60208284031215611104575f80fd5b5035919050565b80356001600160a01b0381168114611121575f80fd5b919050565b5f8060408385031215611137575f80fd5b6111408361110b565b946020939093013593505050565b5f805f60608486031215611160575f80fd5b6111698461110b565b92506111776020850161110b565b9150604084013590509250925092565b5f60208284031215611197575f80fd5b6106bf8261110b565b5f80604083850312156111b1575f80fd5b6111ba8361110b565b9150602083013580151581146111ce575f80fd5b809150509250929050565b634e487b7160e01b5f52604160045260245ffd5b5f805f8060808587031215611200575f80fd5b6112098561110b565b93506112176020860161110b565b925060408501359150606085013567ffffffffffffffff8082111561123a575f80fd5b818701915087601f83011261124d575f80fd5b81358181111561125f5761125f6111d9565b604051601f8201601f19908116603f01168101908382118183101715611287576112876111d9565b816040528281528a602084870101111561129f575f80fd5b826020860160208301375f60208483010152809550505050505092959194509250565b5f80604083850312156112d3575f80fd5b6112dc8361110b565b91506112ea6020840161110b565b90509250929050565b634e487b7160e01b5f52602160045260245ffd5b602081016003831061132757634e487b7160e01b5f52602160045260245ffd5b91905290565b600181811c9082168061134157607f821691505b60208210810361135f57634e487b7160e01b5f52602260045260245ffd5b50919050565b634e487b7160e01b5f52601160045260245ffd5b5f6001820161138a5761138a611365565b5060010190565b5f83516113a2818460208801611095565b8351908301906113b6818360208801611095565b01949350505050565b818103818111156102fd576102fd611365565b5f826113ec57634e487b7160e01b5f52601260045260245ffd5b500490565b6001600160a01b03858116825284166020820152604081018390526080606082018190525f90611423908301846110b7565b9695505050505050565b5f6020828403121561143d575f80fd5b81516106bf8161106556fea2646970667358221220bc70d5d82f537e1220b2c4c35b1c4c67ef774e7828a108df952145b96716216e64736f6c63430008140033",
  "immutableReferences": {},
  "source": "// SPDX-License-Identifier: MIT\npragma solidity ^0.8.20;\n\nimport \"@openzeppelin/contracts/token/ERC721/ERC721.sol\";\nimport \"@openzeppelin/contracts/access/Ownable.sol\";\n\ncontract NFTTree is ERC721, Ownable {\n    enum TreeState { Healthy, Neutral, Withered }\n\n    mapping(uint256 => TreeState) private _treeStates;\n    mapping(uint256 => uint256) private _lastUpdated; //     \n    uint256 private _tokenIds;\n\n    //    ( )\n    uint256 private constant STATE_CHANGE_INTERVAL = 1 days;\n\n    constructor() ERC721(\"NFTree\", \"TREE\") Ownable(msg.sender) {}\n\n    function mintTree() external returns (uint256) {\n        _tokenIds++;\n        uint256 newTreeId = _tokenIds;\n\n        _safeMint(msg.sender, newTreeId);\n        _treeStates[newTreeId] = TreeState.Neutral;\n        _lastUpdated[newTreeId] = block.timestamp; //       \n\n        return newTreeId;\n    }\n\n    function getTreeState(uint256 tokenId) public view returns (TreeState) {\n        return _calculateCurrentState(tokenId);\n    }\n\n    function waterTree(uint256 tokenId) external {\n        require(ownerOf(tokenId) == msg.sender, \"You don't own this tree\");\n\n        //     \n        _updateTreeState(tokenId);\n\n        //   \n        if (_treeStates[tokenId] == TreeState.Withered) {\n            _treeStates[tokenId] = TreeState.Neutral;\n        } else if (_treeStates[tokenId] == TreeState.Neutral) {\n            _treeStates[tokenId] = TreeState.Healthy;\n        }\n\n        //    \n        _lastUpdated[tokenId] = block.timestamp;\n    }\n\n    function _updateTreeState(uint256 tokenId) internal {\n        uint256 timeElapsed = block.timestamp - _lastUpdated[tokenId];\n\n        if (timeElapsed >= STATE_CHANGE_INTERVAL) {\n            uint256 steps = timeElapsed / STATE_CHANGE_INTERVAL;\n\n            for (uint256 i = 0; i < steps; i++) {\n                if (_treeStates[tokenId] == TreeState.Healthy) {\n                    _treeStates[tokenId] = TreeState.Neutral;\n                } else if (_treeStates[tokenId] == TreeState.Neutral) {\n                    _treeStates[tokenId] = TreeState.Withered;\n                } else if (_treeStates[tokenId] == TreeState.Withered) {\n                    break;\n                }\n            }\n\n            _lastUpdated[tokenId] = block.timestamp;\n        }\n    }\n\n    function _calculateCurrentState(uint256 tokenId) internal view returns (TreeState) {\n        uint256 timeElapsed = block.timestamp - _lastUpdated[tokenId];\n        TreeState currentState = _treeStates[tokenId];\n\n        if (timeElapsed >= STATE_CHANGE_INTERVAL) {\n            uint256 steps = timeElapsed / STATE_CHANGE_INTERVAL;\n\n            for (uint256 i = 0; i < steps; i++) {\n                if (currentState == TreeState.Healthy) {\n                    currentState = TreeState.Neutral;\n                } else if (currentState == TreeState.Neutral) {\n                    currentState = TreeState.Withered;\n                } else if (currentState == TreeState.Withered) {\n                    break;\n                }\n            }\n        }\n\n        return currentState;\n    }\n}\n",
  "sourcePath": "/home/jake_berrimor/projects/suka/contracts/NFTTree.sol",
  "compiler": {
    "name": "solc",
    "version": "0.8.20+commit.a1b79de6.Emscripten.clang"
  },
  "schemaVersion": "3.4.16",
  "updatedAt": "2025-01-25T22:55:57.912Z",
  "devdoc": {
    "errors": {
      "ERC721IncorrectOwner(address,uint256,address)": [
        {
          "details": "Indicates an error related to the ownership over a particular token. Used in transfers.",
          "params": {
            "owner": "Address of the current owner of a token.",
            "sender": "Address whose tokens are being transferred.",
            "tokenId": "Identifier number of a token."
          }
        }
      ],
      "ERC721InsufficientApproval(address,uint256)": [
        {
          "details": "Indicates a failure with the `operator`s approval. Used in transfers.",
          "params": {
            "operator": "Address that may be allowed to operate on tokens without being their owner.",
            "tokenId": "Identifier number of a token."
          }
        }
      ],
      "ERC721InvalidApprover(address)": [
        {
          "details": "Indicates a failure with the `approver` of a token to be approved. Used in approvals.",
          "params": {
            "approver": "Address initiating an approval operation."
          }
        }
      ],
      "ERC721InvalidOperator(address)": [
        {
          "details": "Indicates a failure with the `operator` to be approved. Used in approvals.",
          "params": {
            "operator": "Address that may be allowed to operate on tokens without being their owner."
          }
        }
      ],
      "ERC721InvalidOwner(address)": [
        {
          "details": "Indicates that an address can't be an owner. For example, `address(0)` is a forbidden owner in ERC-20. Used in balance queries.",
          "params": {
            "owner": "Address of the current owner of a token."
          }
        }
      ],
      "ERC721InvalidReceiver(address)": [
        {
          "details": "Indicates a failure with the token `receiver`. Used in transfers.",
          "params": {
            "receiver": "Address to which tokens are being transferred."
          }
        }
      ],
      "ERC721InvalidSender(address)": [
        {
          "details": "Indicates a failure with the token `sender`. Used in transfers.",
          "params": {
            "sender": "Address whose tokens are being transferred."
          }
        }
      ],
      "ERC721NonexistentToken(uint256)": [
        {
          "details": "Indicates a `tokenId` whose `owner` is the zero address.",
          "params": {
            "tokenId": "Identifier number of a token."
          }
        }
      ],
      "OwnableInvalidOwner(address)": [
        {
          "details": "The owner is not a valid owner account. (eg. `address(0)`)"
        }
      ],
      "OwnableUnauthorizedAccount(address)": [
        {
          "details": "The caller account is not authorized to perform an operation."
        }
      ]
    },
    "events": {
      "Approval(address,address,uint256)": {
        "details": "Emitted when `owner` enables `approved` to manage the `tokenId` token."
      },
      "ApprovalForAll(address,address,bool)": {
        "details": "Emitted when `owner` enables or disables (`approved`) `operator` to manage all of its assets."
      },
      "Transfer(address,address,uint256)": {
        "details": "Emitted when `tokenId` token is transferred from `from` to `to`."
      }
    },
    "kind": "dev",
    "methods": {
      "approve(address,uint256)": {
        "details": "See {IERC721-approve}."
      },
      "balanceOf(address)": {
        "details": "See {IERC721-balanceOf}."
      },
      "getApproved(uint256)": {
        "details": "See {IERC721-getApproved}."
      },
      "isApprovedForAll(address,address)": {
        "details": "See {IERC721-isApprovedForAll}."
      },
      "name()": {
        "details": "See {IERC721Metadata-name}."
      },
      "owner()": {
        "details": "Returns the address of the current owner."
      },
      "ownerOf(uint256)": {
        "details": "See {IERC721-ownerOf}."
      },
      "renounceOwnership()": {
        "details": "Leaves the contract without owner. It will not be possible to call `onlyOwner` functions. Can only be called by the current owner. NOTE: Renouncing ownership will leave the contract without an owner, thereby disabling any functionality that is only available to the owner."
      },
      "safeTransferFrom(address,address,uint256)": {
        "details": "See {IERC721-safeTransferFrom}."
      },
      "safeTransferFrom(address,address,uint256,bytes)": {
        "details": "See {IERC721-safeTransferFrom}."
      },
      "setApprovalForAll(address,bool)": {
        "details": "See {IERC721-setApprovalForAll}."
      },
      "supportsInterface(bytes4)": {
        "details": "See {IERC165-supportsInterface}."
      },
      "symbol()": {
        "details": "See {IERC721Metadata-symbol}."
      },
      "tokenURI(uint256)": {
        "details": "See {IERC721Metadata-tokenURI}."
      },
      "transferFrom(address,address,uint256)": {
        "details": "See {IERC721-transferFrom}."
      },
      "transferOwnership(address)": {
        "details": "Transfers ownership of the contract to a new account (`newOwner`). Can only be called by the current owner."
      }
    },
    "version": 1
  },
  "userdoc": {
    "kind": "user",
    "methods": {},
    "version": 1
  }
}